{
  "_format": "hh-sol-artifact-1",
  "contractName": "GasChallenge",
  "sourceName": "contracts/gasChallenge.sol",
  "abi": [
    {
      "inputs": [],
      "stateMutability": "nonpayable",
      "type": "constructor"
    },
    {
      "inputs": [],
      "name": "getSumOfArray",
      "outputs": [
        {
          "internalType": "uint256",
          "name": "",
          "type": "uint256"
        }
      ],
      "stateMutability": "view",
      "type": "function"
    },
    {
      "inputs": [],
      "name": "notOptimizedFunction",
      "outputs": [],
      "stateMutability": "nonpayable",
      "type": "function"
    },
    {
      "inputs": [],
      "name": "optimizedFunction",
      "outputs": [],
      "stateMutability": "nonpayable",
      "type": "function"
    }
  ],
  "bytecode": "0x6080604052604051806101400160405280600160ff168152602001600260ff168152602001600360ff168152602001600460ff168152602001600560ff168152602001600660ff168152602001600760ff168152602001600860ff168152602001600960ff168152602001600a60ff16815250600090600a6100829291906100f6565b5034801561008f57600080fd5b5061009e6100a960201b60201c565b600a8190555061023c565b60008060005b600a8110156100ee57600081600a81106100cc576100cb610158565b5b0154826100d991906101c0565b915080806100e6906101f4565b9150506100af565b508091505090565b82600a810192821561012a579160200282015b82811115610129578251829060ff16905591602001919060010190610109565b5b509050610137919061013b565b5090565b5b8082111561015457600081600090555060010161013c565b5090565b7f4e487b7100000000000000000000000000000000000000000000000000000000600052603260045260246000fd5b6000819050919050565b7f4e487b7100000000000000000000000000000000000000000000000000000000600052601160045260246000fd5b60006101cb82610187565b91506101d683610187565b92508282019050808211156101ee576101ed610191565b5b92915050565b60006101ff82610187565b91507fffffffffffffffffffffffffffffffffffffffffffffffffffffffffffffffff820361023157610230610191565b5b600182019050919050565b61028b8061024b6000396000f3fe608060405234801561001057600080fd5b50600436106100415760003560e01c806368b5f223146100465780637ce418941461005057806380d2c8031461005a575b600080fd5b61004e610078565b005b6100586100bc565b005b6100626100fa565b60405161006f9190610160565b60405180910390f35b60005b600a8110156100b15760008082600a81106100995761009861017b565b5b018190555080806100a9906101d9565b91505061007b565b506000600a81905550565b60005b600a8110156100ef5760008082600a81106100dd576100dc61017b565b5b018190555080806001019150506100bf565b506000600a81905550565b60008060005b600a81101561013f57600081600a811061011d5761011c61017b565b5b01548261012a9190610221565b91508080610137906101d9565b915050610100565b508091505090565b6000819050919050565b61015a81610147565b82525050565b60006020820190506101756000830184610151565b92915050565b7f4e487b7100000000000000000000000000000000000000000000000000000000600052603260045260246000fd5b7f4e487b7100000000000000000000000000000000000000000000000000000000600052601160045260246000fd5b60006101e482610147565b91507fffffffffffffffffffffffffffffffffffffffffffffffffffffffffffffffff8203610216576102156101aa565b5b600182019050919050565b600061022c82610147565b915061023783610147565b925082820190508082111561024f5761024e6101aa565b5b9291505056fea264697066735822122014f7a2504ec1281597b20cbd4ddc41d7c7634bcb7d8f5fb22b4ed83d596d714964736f6c63430008120033",
  "linkReferences": {},
  "deployedLinkReferences": {}
}